:020000040A00F0
:20000000604700308D01001AE901001AED01001AF101001AF501001AF901001AFD01001A0D
:200020000000000000000000000000000102001A0502001A000000000902001A0D02001A34
:200040001102001A1502001A1902001A1D02001A2102001A2502001A2902001A2D02001AC8
:200060003102001A3502001A3902001A3D02001A4102001A4502001A000000004902001A11
:200080004D02001A5102001A5502001A5902001A5D02001A000000006102001A6502001A2D
:2000A0006902001A6D02001A7102001A000000007502001A7902001A00000000000000007F
:2000C000000000007D02001A8102001A8502001A8902001A8D02001A9102001A9502001A9D
:2000E0009902001A9D02001AA102001AA502001AA902001AAD02001AB102001AB502001AE8
:20010000B902001ABD02001AC102001AC502001AC902001ACD02001AD102001AD502001AC7
:20012000D902001ADD02001AE102001AE502001AE902001AED02001AF102001AF502001AA7
:20014000F902001AFD02001A0103001A0503001A0903001A000000000D03001A1103001AB3
:200160001503001A1903001A1D03001A2103001A2503001AF8B500BFF8BC08BC9E467047DE
:20018000F8B500BFF8BC08BC9E4670474FF0A04000F5F83000680028FED10F4C0F4DAC42A0
:2001A00009DA21686268A368043BA2BFC858D050FAE70C34F3E70A4B0A4CA34208DA196830
:2001C0005A680020043AA4BF8850FBE70833F4E705F0BCFB00F002FCA883001AC083001A90
:2001E000C083001AC883001AFFF7FEBFFFF7FEBFFFF7FEBFFFF7FEBFFFF7FEBFFFF7FEBF0B
:20020000FFF7FEBFFFF7FEBFFFF7FEBFFFF7FEBFFFF7FEBFFFF7FEBFFFF7FEBFFFF7FEBF46
:20022000FFF7FEBFFFF7FEBFFFF7FEBFFFF7FEBFFFF7FEBFFFF7FEBFFFF7FEBFFFF7FEBF26
:20024000FFF7FEBFFFF7FEBFFFF7FEBFFFF7FEBFFFF7FEBFFFF7FEBFFFF7FEBFFFF7FEBF06
:20026000FFF7FEBFFFF7FEBFFFF7FEBFFFF7FEBFFFF7FEBFFFF7FEBFFFF7FEBFFFF7FEBFE6
:20028000FFF7FEBFFFF7FEBFFFF7FEBFFFF7FEBFFFF7FEBFFFF7FEBFFFF7FEBFFFF7FEBFC6
:2002A000FFF7FEBFFFF7FEBFFFF7FEBFFFF7FEBFFFF7FEBFFFF7FEBFFFF7FEBFFFF7FEBFA6
:2002C000FFF7FEBFFFF7FEBFFFF7FEBFFFF7FEBFFFF7FEBFFFF7FEBFFFF7FEBFFFF7FEBF86
:2002E000FFF7FEBFFFF7FEBFFFF7FEBFFFF7FEBFFFF7FEBFFFF7FEBFFFF7FEBFFFF7FEBF66
:20030000FFF7FEBFFFF7FEBFFFF7FEBFFFF7FEBFFFF7FEBFFFF7FEBFFFF7FEBFFFF7FEBF45
:20032000FFF7FEBFFFF7FEBF210100000300890000000201FB0E0D0001010101000000018B
:20034000000001433A2F70617065725F746565735F73747564792F746565732F54462D4D0D
:200360002F706C6174666F726D2F6578742F7461726765742F61726D2F6D757363615F623B
:20038000312F7373655F3230302F4465766963652F536F757263652F6763630000737461FE
:2003A000727475705F636D73646B5F6D757363615F626C322E5300010000000005028C0114
:2003C000001A038E01012F2F2122030D2021232121212123212121212221032B202123213A
:2003E0002121212321212122210316203303977F2E2F033C2E2F033A2E2F2F2F2F2F2F2F9F
:200400002F2F312F2F2F2F2F2F2F2F2F2F2F2F2F2F2F2F2F2F2F2F2F2F2F2F2F2F312F2FF8
:200420002F2F2F2F2F2F2F2F2F2F2F2F2F2F2F2F2F2F2F2F2F2F2F2F2F2F2F2F2F2F2F2FDC
:200440002F2F2F2F2F2F2F2F02020001012200000002007304001A04012803001A8C010092
:200460001A2803001AA804001A1B05001A5805001A0180011100100611011201030E1B0E9E
:20048000250E1305000000001C00000002004D04001A0400000000008C01001A9C01000040
:2004A0000000000000000000433A2F70617065725F746565735F73747564792F74656573F0
:2004C0002F54462D4D2F706C6174666F726D2F6578742F7461726765742F61726D2F6D758F
:2004E0007363615F62312F7373655F3230302F4465766963652F536F757263652F676363ED
:200500005C737461727475705F636D73646B5F6D757363615F626C322E5300433A5C7061F9
:200520007065725F746565735F73747564795C746565735C54462D4D5C54462D4D5F4275C9
:20054000696C645F4D7573636142315F4C6576656C5F335C626C3200474E55204153203262
:200560002E33322E3000411F000000616561626900011500000005382D4D2E4D41494E0018
:200580000611074D0903014882B002B07047010200010C20704700207047014B986870473F
:2005A00000BF2C040030014B5868704700BF2C040030012805D902280CBF00206FF00400BB
:2005C00070476FF003007047000038B50F4C206800F0C6F90546206800F0A9F96368DA685A
:2005E00095420ED19A6895420BD1B0FBF5F05B68834206D1064B2068196800F09EF90020A0
:2006000038BD6FF00400FBE700BF2C0400302804003010B50D4C0122A36800216FF3410312
:20062000A360A368206843F00103A36000F053F9A3686FF30003A36028B14FF0FF30A368E9
:2006400043F00203A36010BD00BF2C04003010B50F4C0146A36800226FF34103A360A3682B
:20066000206843F00103A36000F035F9A3686FF30003A36048B105280CBF6FF004004FF094
:20068000FF30A36843F00203A36010BD00BF2C04003013B5114C0192A3680A466FF3410340
:2006A000A360A368014643F00103A360206801AB00F0D2F8A3686FF30003A36058B100F051
:2006C000FD0005280CBF6FF004004FF0FF30A36843F00203A36002B010BD2C04003073B507
:2006E000164C054620680E46019200F020F9A3686FF34103A360019B2B449842A36806D259
:200700006FF0040043F00203A36002B070BD43F00103A360324601AB2946206800F03FF8E0
:20072000A3686FF30003A3600028EED0A3684FF0FF3043F00203A360E7E72C04003000007E
:20074000000080000000004000000040000004000000FF0000000100401A0D00401A45008F
:20076000401A1100401A2D00401A5901401A0D01401AC900401A8D00401A1500401A210077
:20078000401A826912F01C03FBD0D20605D51F23C360836913F00C03FBD0184670472DE91D
:2007A000F84F9846436891461A780F46002A4BD0D8F800405B6862189A4247D803681E682D
:2007C000B06910F0010B43D106F5805000F0DDF880283FD15D46012106F1200A0BF00803AC
:2007E00074BB7BBB002B14BF06200020D8F80020141BC8F80040BDE8F88FB369DB07FCD437
:20080000F76130467161FFF7BCFF07F00F058346601910280AEB050298BF2546484688BF6F
:20082000C5F1100502EB050C12F801EB624500F801EBF9D11F23641B2F44A944F360CDE77C
:20084000002BDAD02C44CDE70120D4E70520D2E70220D0E70320CEE72DE9F8431E464368D4
:2008600090461A787AB334685B6867189F422CD803681D68AB69DB0729D444EA010010F00E
:20088000030026D102214FF01F093B1B00F00800ACB9B0B9002814BF0620002033681C1BA5
:2008A0003460BDE8F88358F8042B2846EB612A626961FFF766FF043CC5F80C90E5E700280D
:2008C000F1D00434E6E70120EBE70520E9E70220E7E70720E5E738B545682B780BB3036821
:2008E0001C68A36913F001031DD1012A16D01AB1022A11D0042038BD6B688B4215D30423C2
:20090000E16163612046FFF73CFF1F230828E3600CBF06200020EEE74FF40013E3610723DB
:20092000EFE70120E7E70220E5E70520E3E70368186800F5805000F02AB838B503680446F1
:2009400018681F23436000F5805000F010F820466568FFF7ECFF0122636868601A7038BD2C
:200960000368186800F5805000F014B80000034B044AC0E90023034B8360704700BF0802F2
:20098000056401280811080A0A0A802070474FF4001070474FF480407047000010B5054C55
:2009A000237833B9044B13B1044800E000BF0123237010BD04050030000000009C83001ABC
:2009C00008B5034B1BB10349034800E000BF08BD00000000080500309C83001A154B002B44
:2009E00008BF134B9D46A3F5803A00218B460F461348144A121A05F002FD0F4B002B00D028
:200A000098470E4B002B00D098470020002104000D000D48002802D00C4800E000BF05F03B
:200A20008DFC2000290000F0D9F905F061FC00BF0000080060470030000000000000000032
:200A400004050030582F0030000000000000000050B1D343994206D8C0681144884234BF9C
:200A60000020012070470020704700000B4B30B51A6800230A4C9A4203DC06D14FF0FF3071
:200A800008E01D012D5D854205D10020044A02EB03130B6030BD0133EDE700BF8874001A83
:200AA0003874001A704700002DE9F04307460C461E46294B85B0904693E8070004AB03E9D1
:200AC0000700324621463846FFF7C2FF00283ED07B685B68984704ABC0F3410003EB80002F
:200AE00010F80C5CC5F1000909EA04094C452CD0D7E901302A465B696946484498470028D3
:200B000018DB0022A4EB0901D0B20B18AB4202F1010212D3651B3544A5EB0906D6B1BB6878
:200B200008EB00011C447B6832465B692044984700EAE07005B0BDE8F0830DF1100C634437
:200B400013F8103C08F80030DEE70020E6E74FF0FF30EFE73046EDE72C74001A2DE9F04FBF
:200B600085B0019221F0030B1A4680468A461D46A1EB0B06FFF76CFF28B94FF0FF39484651
:200B800005B0BDE8F08F334603AA59464046FFF78BFF0028F1D1EB1C334423F00303ABEB9A
:200BA0000A077F1B1A465946404600931F44FFF74FFF0028E1D03B4602AA0AEB0501404644
:200BC000FFF772FF81460028D7D1002E69D13446AC42D4D2A5EB040B3BF0030B0CD0D8F81D
:200BE0000800D8F8043050449B695A460199204498470028C1D15C44002FC0D003A82346A7
:200C0000002286469D4209D90199013211F803C0042A00F801CB03F10103F3D19D42ACD182
:200C20000023042A40D10436042A2644A5D19F42A3D1009BB342A0D1D8F80800D8F80430D8
:200C400050449B69714620449847003018BF0120C0F1000993E7019B03A91B5D01348B54D2
:200C60000132032A29D8AC42F5D1002302A903A89F4282D011F8014B013314540132042A61
:200C8000F6D12C469F427FF478AF042A7FF475AFD8E9013003A99B6958449847002897D02F
:200CA0006BE732460446DCE7BB42BCD002A9C85C01330EF802000132B3E7AC42E5D1002335
:200CC000E0E72DE9F04105460E469046FFF7C0FEA8B16B689B6A98470468074664B10020DF
:200CE000BDE8F081D5E90130DB69304498470028F6D1BB681C441E444445F3D3EFE74FF020
:200D0000FF30EDE708B543689B6A9847006908BD08B504F0A9FE10B1024B186808BD024B5E
:200D2000FBE700BF100400302425003037B50B4D0C462B6861B1021D0AD80330042807D8DB
:200D400001AA042104F0C4FE28B12B68019A2260184603B030BD024B1B68F7E71004003094
:200D60002425003008B5031D09D80330042806D804F0B6FE003018BF0120404208BD4FF0A9
:200D8000FF30FBE730B50C4685B0054618B94FF0FF3005B030BD0029F9D001A90120FFF7F7
:200DA00065FE0028F3D1019B9C4215D001A90220FFF75CFE0028EAD1019B9C42E7D101242F
:200DC00002AB143595E80300082283E80300A101022000F009F9DCE70446F1E71FB54FF453
:200DE0000051224801F088FD04F0EAFD04F07AFD18B11F4805F09EFEFEE71E4805F09AFEE3
:200E0000FFF786FF1C4C2368834203D01B4805F091FEFEE701A800F0FFFD2368834203D048
:200E2000174805F087FEFEE70399164805F082FE154805F07FFE69469DF8080000F02EF854
:200E400028B1124B124A3B21124805F02BFA019B1A691C8992065BBF0398009B5868C018EC
:200E6000044404F0D9FD204604F052FD200500309474001AB174001A24250030CD74001A2D
:200E80000375001A2975001A5B75001A8375001A8C74001A8B75001A04F056BE642808B587
:200EA00007D001466422054805F044FE4FF0FF3008BD4FF0D05300200B60F9E7C875001AB3
:200EC000012908D002290CD069B978B1012814BFFF200220704758B1012814BFFF20042082
:200EE0007047052070474FF0FF307047012070470320704708B543689B6A9847007D08BDFA
:200F00002DE9F3410F6806460D46C0B201A99046FFF7ACFD0446002832D12B68CBB1019AC1
:200F2000D16828604FF480402B6809B19F4206D89F4210D23146144805F0FCFD09E0B1F5CE
:200F4000804F0FD24FF48043D26831460F4805F0F1FD4FF0FF340198FFF7A4FD204602B036
:200F6000BDE8F0814FEA833C48F833C02B68A1F5804108EBC30358602B6801332B60D3E7C9
:200F80004FF0FF34EAE700BF2D76001AF175001A704700000EB410B593B04022002102A864
:200FA00005F02DFA159805F039FE831C402B044607D90C4805F0BEFD13B0BDE8104003B099
:200FC000704716AB159902A8019305F01FFE12AB1C440D23019902A804F8403C05F026FE79
:200FE000EAE700BF5976001A2DE9F3471646002281460C4601921D461BB9032002B0BDE84D
:20100000F0872D4F397859B94FF480624FF0405005F0F5F94FF04053284A1A6001233B70B6
:201020004FF040535F88DFF898801F441FFA89FAB84529D34FF04058C4F30B0444EA093408
:20104000ADF80440B4B2ADF80640B8F80220231D12FA83F3B3F5803FCFDA9BB2B3F5806FCE
:2010600028D8042238460DEB020105F0A1F932462946381D05F09CF9B8F802300020043343
:201080001C44A8F80240B9E7042241460DEB020005F08EF9BDF80430BAEB133F03D1C3F3E1
:2010A0000B03A34204D0BDF8063004339844BFE70220A3E70120A1E72025003016200400C1
:2010C000040000300023F0B5ADB00646009305A84FF6FF73174600F013FD18B14FF0FF30E0
:2010E0002DB0F0BD044605460DF10E0303AA04A905A800F051FD0028F0D1BDF80E30602B16
:201100000ED1BDF80C30642BE8D813AA04993846FFF7CAFC0028E1D1BDF80C500124E3E742
:20112000102BE1D1BDF80C30202BD7D80BAA04993846FFF7B9FC0028D0D1002CCED013AB0B
:20114000A5F1200004900BA92022184405F030F9B10113AB2A4641F03F010120FFF744FF2A
:20116000BEE7202337B5019390F8B8300D46B3B1012B22D1022901D0042213E0582404FB31
:20118000030204FB0303526A03F1280401A92846FFF7B6FE08B9019B236003B030BD0129FD
:2011A000ECD00322AA420AD1582404FB030204FB0303126D03F15404E8E7FF29DED0012071
:2011C000EBE738B590F8B8500446EDB1012D0CBF0221FF212046FFF7C4FFC8B9B5B1012D68
:2011E0000CBF0421FF212046FFF7BBFF054688B9582294F8B83002FB0343186AFFF782FD15
:20120000C4F8B400284638BD0121E3E70321EAE70125F7E70925F5E72DE9F04116465827EA
:2012200090F8B8208846334602FB07020021044600F0FAFB054670B994F8B820334607FB5E
:20124000024201212C32204600F0EEFB18B1B8F1000F18BF05462846BDE8F08137B50C4626
:20126000002105460091FFF72BFE6946C0B2FFF7FDFB88B9204601AA009900F00BFE044615
:2012800020B901992846FFF76DFD04460098FFF709FC204603B030BD0124F7E72DE9F043DE
:2012A0003D4B89B0044690F8B8000D461E68FFF707FE06A9C0B2FFF7D9FB002860D194F83F
:2012C000B87029463846FFF7FBFD2C2607A9C0B26E43FFF7CBFB00283DD058224FF02C0808
:2012E00002FB07F308FB053804EB0809D9F8100010F0100040D14FF4807312FB0762019375
:20130000264BCDE9030000930290069B224494F8B81000F0EFFD0646214B54F8082006987D
:201320009A420ED1B9F80820D9F80C30D1438B4207D81344C268934203D21A4B1B68B34244
:201340001BD035B30021C268FFF7BBFC1649174805F0F0FB10E00798FFF7CCFD8046079871
:20136000FFF7A0FB582394F8B82013FB026323445A1E03339A4207D101260698FFF792FB79
:20138000304609B0BDE8F08312F8011F4145F1D0A3E70749DBE700BF10040030E42D0030B5
:2013A0003DB8F39624250030D376001AE576001ADD76001A0123036003F10123436000238C
:2013C000C0E9023370474379012B07D10368012B04D10079431E58425841704700207047B1
:2013E0002DE9F047884691469A460024099E104FB44201D300200EE0351BB5F5806F28BF49
:201400004FF480650A4A2B4604EB0A014046FFF74BFB10B10120BDE8F08708992B463A4693
:2014200061184846FFF79AFB0028F3D12C44DFE7E42500302DE9F04F044600274FF0FF3586
:20144000BF4B95B08846BC220021DFF81CB31E6804F0D5FF84F8B87094F8B8A0BAF1010F39
:2014600043D947B300232C274FF0580984F8B83094F8B80001281DD8231893F8B05005F0BF
:20148000FB0515F1FF3518BF01252946FFF718FD05A9C0B2FFF7EAFA002800F0EF800125F4
:2014A0000598FFF7FFFA002D00F0628140F20113A4F8B03000250023DFF8B0A284F8B83009
:2014C0000AA8FFF777FF94F8B820224492F8B0308DF82F30013B042B00F2F781DFE813F037
:2014E000E6014E014E014E01E6015825954B05FB0A414FEA0A2298184FF02009924B486285
:201500001A440A6550460021FFF7DAFC94F8B810C0B215FB01912144FFF7A8FA30B140F203
:201520006D718A4B8A4A8B4804F0BCFE01215046FFF7C6FC94F8B810C0B205FB01414C31AE
:20154000FFF794FA05460028E9D12046FFF739FE824688B9002220461146FFF75DFE20B33B
:2015600094F8B8107C4805F0E5FA012294F8B830234483F8B0200BE04946584605F0DAFA55
:20158000012194F8B8308A45234483F8B010E1D194F8B830E21892F8B0200133023A022A2E
:2015A00098BF012784F8B83056E7204600F058FA0028DAD00AA8FFF7FDFE0AA8FFF703FF44
:2015C00098B994F8B8301BB1012223449C4204D1624B634A4FF4D861A5E794F8B01001345A
:2015E000042908BF84F8AF20F0E79DF82FA0BAF1010F31D194F8B80000F0C8FB831E022BEF
:2016000081460DD851462046FFF748FE554B1B68984205D001280CBF4FF001094FF0050989
:2016200094F8B830234483F8B09094F8B830002BAED0234493F8B020012AA9D0042AA7D0EC
:20164000224601219A42A3D092F8B0000132042808BF82F8AF10F5E701212046FFF71EFEA2
:20166000404B1B68984218BF052294F8B83008BF9DF82F20234483F8B020D6E701237D4312
:2016800094F8B810009319FB01514023059A21440EA800F035FA054600287FF401AF002308
:2016A0000DF1120206A90EA800F076FA0028FFF6FDAE05987FF4F4AEBDF812300C2B3AD1A0
:2016C00007AA0699FFF7F0F900287FF4E8AE9DF81C20012A31D8A31893F8B03009FB02F287
:2016E000023B022B8CBF0023012307FB03232344197D9DF820209142D1D80AD3597D9DF830
:2017000021209142CBD804D3DA8ABDF822309A42C5D294F8B830234493F8B020012A08D024
:2017200022B1032A02D8012283F8B0204FF0FF35B6E60422F8E70325B2E60725B0E600BF0C
:2017400010040030E4290030E42B00308375001AC376001A1077001ABD77001A8975001A5D
:20176000A576001A242500307877001A4278001A94F8B830013384F8B83079E6994805F09D
:20178000D9F9994805F0D6F994F8B85065B1012D0CBF0220FF2007A9FFF768F930B1934B28
:2017A000934A40F21141BEE60120F4E765B1012D0CBF0420FF200EA9FFF758F930B18B4B21
:2017C0008B4A40F21541AEE60320F4E74FF058090546074694F8B83009FB03439B6ABB4222
:2017E0001ED12946504605F0A5F9002301950093079A0E992046FFF7F3FD60B9582594F860
:20180000B80005FB00412C31FFF728FD014600B3784805F08FF9754B774A40F2C25182E6F2
:2018200094F8B820294609FB0242526A079802EBC702D2F804B003935A46FFF742FA039BF8
:2018400020B16A4B6A4A40F21B416CE65D440137C5E794F8B8300E9805FB03431B6D5A683F
:20186000FFF72FFA20B1614B614A40F26A415AE694F8B83005FB0343D3E91423013B52F8D1
:20188000331002EBC30013684268C91A0E98FFF718FA054620B1554B554A40F2724142E637
:2018A0000798FFF7FFF80E98FFF7FCF894F8B830E21892F8B020FF2A0BD1504805F03AF97F
:2018C0004F4B504A40F2C4712DE6FF2382F8B030ECE70133DBB2012B84F8B8307FF6F0ADA8
:2018E00000235827DFF8209184F8B83094F8B830012B13D9102200210AA804F080FD002335
:2019000084F8B830236A5A7888F804209B68C8F80040C8F808303C4B1E6824E0234493F862
:20192000B030012B06D00AAA00212046FFF774FC0546C0B900212046FFF7B0FC0646D9F81A
:20194000003083420FD194F8B800231893F8B030012B22D100FB0741FFF780FC0546E0B118
:201960002A4805F0E7F80023582784F8B83094F8B830012B2FD807FB0343D86CFFF792F868
:2019800094F8B83007FB0343186AFFF78BF894F8B830013384F8B830E9E794F8B80007FB6E
:2019A00000431A6A1946FFF78DFB054608B11848D7E794F8B80007FB0043196A1846FFF701
:2019C000E1F9054628B994F8B830013384F8B8308CE71048C5E7002D18BF2E46304615B0CB
:2019E000BDE8F08FEC77001A2178001A8375001A8176001A8678001A9176001AC278001AE3
:201A00008975001AC376001A24250030D178001A1079001A4079001A08B501460148FFF7C6
:201A200009FD08BD2825003013B590F8B8001446FFF746FA01A9C0B2FFF718F8014668B93C
:201A4000224620230198FFF72FF8041C18BF01240198FFF727F8204602B010BD0124F7E773
:201A60005822F8B590F8B83002FB0300D0F828C0BCF1200F02D8466D202E33D91D4805F002
:201A800059F80020F8BDAC4215D1476A07EBC2077F6801323C44076D07EBC3077F680133FB
:201AA0003D446245EFD3B342EDD3624501D1B3421ED01148E3E70BD2476A022907EBC20794
:201AC0007F683C4401D10D48D9E701320121E8E7076D012907EBC3077F683D44F3D00133DB
:201AE0000221DEE700210B460A460D460C46D8E70120C7E77279001ADE79001AA479001A5C
:201B00002DE9F7430E4617469946044628B94FF0FF38404603B0BDE8F0830029F7D0002AD9
:201B2000F5D0CB680D8938461D44042329460DEB0302FEF7B9FF80460028E8D146F60812FB
:201B4000BDF804107389914223D1BDF806109942DDD1042329440DEB03023846FEF7A4FFFE
:201B60000028D4D146F60713BDF804209A42CED19DF82830BDF80620A3727389C4E9006701
:201B80002B44E36004351344A4F8089063612561BFE7002BE6D0BAE72DE9F3410E46174662
:201BA0001D46044620B94FF0FF3002B0BDE8F0810368002BF7D04368002BF4D04FF6FF78B6
:201BC000D4E904239A4216D223685B8923B1E368934204BF04332361042321690DEB0302CE
:201BE0006068FEF761FF0028DDD1A27A236922B1E2689A4201D80120D7E7B4F808C0BDF870
:201C00000620C44502F1040103D0BDF804E0E6450BD11DB1BDF804C0A5F800C004333360BC
:201C20003A8022690A442261BFE70B442361C7E704F0B0BB38B50C461546FFF75BF92146BD
:201C40002544A94201D1012038BD11F8013B9842F7D00020F8E704280AD0052804D111F159
:201C6000FF3018BF01207047431A5842584170470120704711B10AB1FFF7DCBF0020704782
:201C800038B50C460123114622460546FEF70CFF002810DB012221462846FFF7EBFF18B123
:201CA00003230020237038BD2378012B0CBF012302232370F7E70120F5E7C268183AFFF79B
:201CC000DFBF000030B50C46C16887B0102302AA10390546FEF7E8FE002811DB102202A990
:201CE0002846FFF7A7FF68B103232370E96801230DF1070228392846FEF7D6FE00280BDAE7
:201D000001202AE01022164902A804F043FB002814BF02230123E8E79DF807300DF1070146
:201D200003F00F021B096270237101222846FFF781FF10B96378042B03D901236370002345
:201D40002371EA68A11C203A2846FFF799FF0028D6D1E11C2846FFF7B0FF07B030BD00BF48
:201D6000107A001A13B50C46C0B201A9FEF77EFE50B921460198FFF7A5FF04460198FEF79D
:201D800091FE204602B010BD0124FAE72DE9F043044685B058B101280CBF0220FF20694614
:201DA000FFF7E0FF28B1FF2005B0BDE8F0830120F5E7002C40D0012C0CBF0420FF2002A96A
:201DC000FFF7D0FF012839D12146294804F0B2FE284B029300238DF80C3000229DF800509C
:201DE0009DF808609DF803709DF80B809DF80290214C29462078FFF72EFF20B331466078DE
:201E0000FFF729FFF8B1A378042B01D0BB421AD1E378042B01D0434515D12379042B10D183
:201E20006379022B19D11549154804F083FE6079831E022BB8D9B6E70320C0E70028CCD01C
:201E4000B1E74B45ECD00132032A04F10604D0D10C4804F06FFE0120A6E7032B05D00A49E5
:201E60000A4A042B18BF1146DEE70949DCE700BF557A001A03010303207A001A397A001AA4
:201E8000A37A001AB97A001A327A001A437A001A3E7A001A30B50C468BB01546014620B368
:201EA0001CB312B3438913B903200BB030BD01232246009304A85023FFF722FE0028F4D1EA
:201EC00003460DF10A0203A904A8FFF765FE70B9BDF80A30042BE7D12A4603992046FEF798
:201EE000E3FD003018BF0120DFE70720DDE74FF0FF30DAE72DE9F04F4FF0000B1D466FF099
:201F00000043ADF2B44DDFF86882C6A80DF59C64CDE9093B94E8500404919146D8F8007037
:201F200000F0C2FF5946C6A800F0E2FFC34634B1002E04DD32462146C6A800F0EAFF0026C9
:201F4000B9F80A30B9F808401C44D9F80C301C44B4424CD812A9C6A800F0E4FFBAF1000F00
:201F600004D0202212A9504604F022FA0023494600932A464FF6FF730CA8FFF7C1FD0146CF
:201F8000002840F0D1803E4682464FF0FF34DFF8DC8108A90DF11E0307AA0CA8FFF7FCFD82
:201FA000011EC0F2C18040F0C480BDF81E30102B37D1BDF81C90B9F1200F40F0C980089901
:201FC0004B4666AA2846FEF76FFD0146002840F0AB8066A94A4612A8FFF72AFE0146D8F839
:201FE0000030834240F0A0804FF0010AD1E7DDF8DC34A4EB0608984528BF98463146434676
:20200000DDF8D8242846FEF74FFD0146002840F08B804246DDF8D814C6A800F07AFF4644EC
:2020200096E7022B3ED1BDF81C30B3F5CC7F00F28F800DF5467908994A462846FEF734FD6C
:202040000146002870D1BDF81C300590039320232AA80B9300F028FF05992AA800F048FF33
:20206000039A49462AA800F054FF1AA92AA800F059FF0BAA22A99DF81000FEF70DFF0446D2
:20208000002886D10B9A22A91AA8FFF7D1FDD8F80030984224D1324B039AC3F80090314B1B
:2020A0001A6076E7232B1ED1002C19DB2E4B1B68A34215DDBDF81C30B3F5C07F48D1089977
:2020C00066AA2846FEF7F0FC014668BBE4B20094BDF81C3066AA202112A800F04BF8074681
:2020E0004FF0FF3455E7502B7FF453AFBDF81C30042B2DD108990AAA2846FEF7D5FC014644
:2021000090B909A90498FEF711FE0646D8F80030834220D1DDE909239A427FF63AAFDBF823
:20212000001088423FF435AF08460DF2B44DBDE8F08FBAF1000F10D00C4B1968B94218BFF8
:20214000DBF80070B1420CBF39464FF0FF31EBE74FF0FF31E8E70146E6E70121E4E700BFC0
:2021600000040030302F0030C475001A24250030100400302DE9F04F1E46ADF2D44D6C4B5C
:2021800080460CA89DF8F8A4894617461D6800F063FD684BD4AA53F83A4003EBCA035B681F
:2021A00002941B6802A81C442146302300F00DF968BB029BD49A13449C4228D10EAA2146D1
:2021C00002A800F016F910BB0DF1440B5A46214602A800F00EF98246C8B90EA800F0CFF9DF
:2021E000029B0D909C4212D1CDE900AB534652460EA90CA800F00EFE48B90CA800F03AFD0F
:2022000028B90EA800F0BBF986420D900AD00CA800F0BAFD0CA800F0B7FD28460DF2D44D03
:20222000BDE8F08FB6F5C07F02D04FF0FF35F1E7B9F1200FF9D1D4AA39460CA800F04EFDE4
:2022400005460028F1D19DF8CF34BC2BEDD17CAF40F25F163C46039040A800F025FE002109
:2022600040A800F045FE20220DF2AF4140A800F050FE042203A940A800F04BFE04A940A864
:2022800000F050FE1F2ED4BFB1464FF020099DF80F30384601334A4604A9A6EB09068DF8D9
:2022A0000F3004F085F8002E4F44D5DC2046224640F25F13D4AE117816F8017B013B81EA4E
:2022C000070102F8011BF6D1237803F07F03237010F8016B002EA8D10135B5F59F7FF7D195
:2022E00094F83E31012BA0D140A800F0DDFD314640A800F0FDFD08220F4940A800F009FEEA
:202300004146202240A800F004FE20220DF22F3140A800F0FEFD04A940A800F003FE2022DE
:202320000DF2AF4104A8FFF783FC05467FE700BF1004003000040030D17A001A036830B5F0
:20234000CD1A002D0CDD1C7814F0800F0BD15C1C04601B7813600368C91A13688B4232D9FA
:202360006FF05F0030BD04F07F04013C032C27D8DFE804F00209121E012DF1D05C780233E2
:2023800014600360E7E7022DEADDB3F80140033364BAA4B21460F4E7032DE1DD9C785D78E6
:2023A000240244EA0544DD7804332C431460E8E7042DD5DDD3F80140053324BA1460E0E702
:2023C0006FF06300CEE70020CCE770B404680E1B002E07DD26789E4208D10134046070BCCC
:2023E000FFF7ACBF6FF05F0070BC70476FF06100FAE737B50223154601AA0446FFF7E5FFFF
:2024000040B9019A2168284600F0BFF82368019A1344236003B030BD01F18041013900EB12
:2024200081018142034600D270471B680A681BBA12BA40F8042B41F80439F2E710B504462A
:2024400068B1806830B16168890000F09DFAA06800F08AFA00230122C4E90023A36010BD5F
:2024600042F21073994270B504460D4602D96FF00F0070BD43688B4216D20421284600F0AF
:202480006DFA06460028F2D0A16859B16268920003F08EFF6168A068890000F075FAA068EF
:2024A00000F062FAC4E901560020E2E738B504460D4619B9FFF7C2FF002038BD42688A4245
:2024C00007D192000021806803F099FF01232360F2E7FFF7B3FF29462046BDE83840FFF7EE
:2024E000BFBF884270B505460E460AD04C6840686CB9C8B1012382002B602146A86803F061
:202500007EFF002010E0B36853F8243013B9013C002CF8D10134336884422B6005D9214610
:202520002846FFF79DFF40B170BDAB68001B8200002103EB840003F062FFA200B168A8681B
:2025400003F036FFDDE743688BB18268013B83B952F8231000204FF00042114204D10130CF
:2025600020284FEA5202F8D10133C0EB43131846704752F823100029EAD1013BE7E708B54B
:20258000FFF7E1FF0730C00808BD2DE9F04112F0030418BF012404EB92048846214607464E
:2025A0001546FFF783FF064668B965B1B868C5EB84032A464146184403F0FAFE1CB12146FC
:2025C000B868FFF729FF3046BDE8F08130B5436823B94A685AB9002B38D131E0826802EBE4
:2025E000830252F8042C002AF3D1013BF0E78C6804EB820555F8045C25BB013AEAE7934203
:20260000096801D24A4222E00268002A03DD002913DA01221BE000290FDD72B14FF0FF3298
:2026200015E0816851F8235054F823108D420ED803F1FF3302D2524209E0013B591CF0D1E3
:20264000002204E0002BDAD09342D8D90268104630BD000002680E4B9A4215D1C269A3F128
:202660001023A3F1EF139A420ED18368012B0BD8C36813B10269934206D0436933B180695E
:20268000C31A584258417047012070471846704755AA00FF38B50D4B9D68A5B12846FFF784
:2026A000D9FF014678B9EB686BB92C690CB9084638BD2046FFF7CEFF28B9E368AB4202D1A1
:2026C00025462469F2E70121F1E700BFE42E00302DE9F843404D2C68D4B1AC68C4B1002886
:2026E0004DD000294BD001FB00F6B6FBF0F0884245D1301D43D8B1070DD026F003070437BE
:20270000EC6803E06368BB423BD2A469002CF9D12046BDE8F8833746F2E7E86044E007F16A
:20272000200C04EB0C03203959600021DFF8B0E0C3E902142169196144F80CE0DFF8A4C0AC
:20274000C3F81CC001B1CB60C3E90520AAB193619A6902B15361236100234FF00109C4E9DE
:2027600005332B69C4E90179DB072DD5FFF792FF50B31A4B48461B6825E0EB60E8E700243F
:20278000C6E7A3681BB1154B01201B689847D4E90520616804F12008C91B2329BFD801231F
:2027A000A360002AB9D09061A36903B15A610023C4E905332B69DA0706D5FFF76BFF18B176
:2027C0000120064B1B689847324600214046444603F015FE9CE700BFE42E003018040030A6
:2027E00055AA00FF669911EE2DE9F041074600287CD03F4D2B68002B78D0AA68002A75D0C2
:20280000834203D86A681344984203D3394B01201B689847A7F120042046FFF71BFF18B13D
:20282000344B01201B68984757F8183C012B03D0304B01201B689847002357F8146C47F8C5
:20284000183CAEB1B26892B957F81C3C03F1200273681344736057F8103C336103B1DE607D
:2028600020462022002103F0CAFD234634461E462069002832D08368002B2FD16368426850
:202880002033134463600369D4E905212361DAB901BB426981696261A161EAB19461A269B4
:2028A00002B1546103B1DC602022002103F0A7FD2B699B071AD5FFF7EDFEB8B1BDE8F04181
:2028C0000C4B01201B6818479161A1690029E0D04A61DEE7E960F8E7EC60E0E7002EE7D138
:2028E000EB68A36103B15C61EC60E1E7BDE8F081E42E00301804003038B50D4614220021C1
:202900000446124803F07BFD1149124800F032F8232D1AD914F003031FBF043DED18C3F1B5
:202920000403E4182A460021204603F068FD074B094AC3E900459C602260A2F11022203D0F
:20294000A2F1EF126560E261DC6038BDE42E0030E927001AD126001A55AA00FF014B1B6860
:20296000184700BF14040030014B1B68184700BF1C040030024B1860024B00201960704752
:20298000140400301C0400300A4619B1024B00211B681847704700BF2004003030B54E4BED
:2029A0004E4D85B0022908BF1D464D4B044698424ED8013B984280F08780233B98421FD854
:2029C000013B984242D20C3B984212D8133B98423CD200287AD0434B1B683BB1CDE9004423
:2029E000414B424A42490020FEF7D4FA4FF0FF3513E0404B984265D009339842EBD825E073
:202A00003D4B98425CD01BD8173B9842E3D33B4D3B491533984288BF0D463A4B1B68012B57
:202A20000BDD304B1B6843B1CDE9014500942E4B2E4A35490220FEF7ADFA284605B030BDEF
:202A4000324B984202D006339842C4D32B4DE4E72F4B98421DD8013B984239D22B3B9842B6
:202A600036D009D8033B98422AD0013398420ED0053B9C42EAD0AEE7264B984204D8013BA1
:202A80009842E3D21F3BF4E7234B9842A3D1234DC3E7234B9842D9D009D80D3B984219D0BF
:202AA0006FF49162A0F570031344012BA6E71D4B984205D01C4B984298D01C4B98428AD14C
:202AC0001B4DAAE7043DA8E70D4DA6E70546A4E7184DA2E7184DA0E700BDFFFF80BDFFFFA0
:202AE0004404F0000C040030D97A001AF97A001AFC7A001A1404F0003904F00080BFFFFF62
:202B000080BEFFFF08040030217B001A3A04F0008504F0008104F0008204F00080BCFFFFBB
:202B20009304F000250CF0000100F500140CF00080BBFFFF00BFFFFF00BCFFFF2DE9F84FDA
:202B400000F10809064648460D46FFF718FD06F1140A07465046FFF712FDB0F5007F0446D0
:202B60006AD8B369002B67D0B7F5007F66D8F368002B63D005F1040840F22C41404600F05C
:202B800097FA4846D6F810B0FFF7F9FC59460246404600F087FA5046F669FFF7F0FC05F5EE
:202BA00004790337024631464846BF0800F07AFA3946404600F0C1FA03340646A4082146A0
:202BC000484600F0BAFAA6F50073B3F5606F824623D816F0FF0F20D16B68DB0724D528B3ED
:202BE0003B4642462146484600F06BFA02281FD1BAF11F0F03D8D5F81032022B18D9C5F8CA
:202C00000C62C5F818A4404600F064FE044688B90B4B2B602046BDE8F88F0A4C40F23441FA
:202C2000284600F045FAF5E7074CF7E7074CF5E7074CF3E7074CF1E7044CEBE7014CE9E724
:202C4000DF9B57130004F0001504F0000604F0000504F0004404F00010B5044610B9044844
:202C600000F0ECF92046BDE81040D02100F020BA5A7B001A38B5044648B302693AB3836805
:202C8000012B24D1C36913B3416901291FD11268D2071CD51B68DB0719D500F1080528465A
:202CA000FFF751FCB0F5806F11D32846FFF74BFCB0F5805F0BD814342046FFF744FC01283A
:202CC00005D929462046FFF781FC002801DB024838BD0020FCE700BF00BEFFFF2DE9F743BD
:202CE000884691460746002839D0C369002B3DD00369002B3ED040F234410120FFF72EFEBE
:202D0000044680B34FF4F1610120FFF727FE054650B321463846FFF711FF064640B9CDF822
:202D200000907B6842462946204600F05BFE0646204640F2344100F0D1FE4FF4F16128465F
:202D400000F0CCFE2846FFF70FFE2046FFF70CFE0121304603B0BDE8F043FFF71FBE0546A1
:202D60000446054EE4E70546044EE1E7044803B0BDE8F0830348FAE74104F0000100F50018
:202D80000204F0000104F00010B50446002840D0B030FFF753FB04F1BC00FFF74FFB04F1F7
:202DA000A400FFF74BFB04F18C00FFF747FB04F19800FFF743FB04F18000FFF73FFB04F11F
:202DC0007400FFF73BFB04F16800FFF737FB04F15C00FFF733FB04F15000FFF72FFB04F1FF
:202DE0004400FFF72BFB04F13800FFF727FB04F12C00FFF723FB04F12000FFF71FFB04F1DF
:202E00001400FFF71BFB04F10800BDE81040FFF715BB10BD2DE9F8430C46DDE9087691464F
:202E200098460546002839D079B9B9F1000F15D1B8F1000F1AD10FBB46BB8CB305F10800BC
:202E4000FFF79DFB6860002006E00830FFF749FB0028EAD0A0F58140BDE8F883494605F1C7
:202E60002C00FFF73EFB0028E2D0F3E7414605F13800FFF736FB0028DDD0EBE7394605F14B
:202E80002000FFF72EFB0028D6D0E3E7314605F11400FFF726FB0028CFD0DBE70148DBE72F
:202EA0002046D9E780BFFFFF10B5044610B9044800F0C4F82046BDE81040F02100F0F8B8D3
:202EC000E17B001A38B9064B1B683BB1054B064A0649FEF75FB8F02100F000BE704700BF9B
:202EE0000C040030677B001AF97A001ADA7B001A08B521B101290AD06FF0360008BD01218B
:202F000000F0A6FE002818BF6FF03600F6E70221F6E708B500F01AFF002818BF6FF0360052
:202F200008BD000073B50D46064600B171B9164B1B6823B96FF03604204602B070BD134B2E
:202F4000134A14490020FEF725F8F3E700F0A4FE04460028EED13368012B08D0022B08D143
:202F60001C2206F10801284600F09CF8E4E72022F7E7054A1268002ADED00093044A034B66
:202F80000549FEF707F8D7E70C0400307B7B001AF97A001A917B001AB77B001A13B50024F6
:202FA00001AA4FF480110548019400F085F82046034B019A1A6002B010BD00BF0080085064
:202FC000F82E003010B5044C4FF48011206800F076F80020206010BDF82E0030024B1B6839
:202FE000C3F8080A704700BFF82E0030024B1B68C3F8040A704700BFF82E003008B100F02A
:2030000039B84FF47500704710B5034688B10A4A116801F52064226812F4807006D04FF429
:20302000750043F48073C1F8083A10BD1342F2D0F9E74FF47500F8E7F82E00301FB5084B1E
:203040001B6853B10B230193064B02900093064A064B07490020FDF79DFF03F01BF900BF4A
:203060000C040030077C001AF97A001A6B7C001AEF7B001A0346094A10B5116801F520640D
:20308000226812F4807005D0012043F48073C1F8083A10BD1A42F3D0F9E700BFF82E0030B4
:2030A00003F078B903F091B903F08FB903F0A7B90A46002103F0A3B91060002070470020FA
:2030C0007047F0B5054600EB810031B902EB83004BB9081C18BF01202EE050F8044D002C90
:2030E000F4D10139F1E750F8044DACB9013BEFE755F8247052F82460B74204D9002808BF75
:203100000120013C13E0FCD2002808BF0220F8E7012011E002200FE009B18B42F8D38B425E
:20312000F8D8481E5C1E844228BF04460020002CDEDA8B4218BF0020F0BD00EB810009B945
:203140000846704750F8043D0BB90139F7E74901A1F12002002BF3DB013991424FEA430382
:20316000F8D1EDE70B4A10B513688901C3F8900010F03F0318BF012303EB901314680133CA
:203180009B01C4F894309823106819500433B02BFAD110BDF82E00301F28F8B5064657D907
:2031A0008F284ED8473000F01F03002B14BF0123002303EB501300D001335B01C3F34014A9
:2031C00004EB93135C1C11B18C4241D80C464FF4C057E300B7FBF3F7202F28BF202702B1DE
:2031E00017601C4D023F2B68D3F8040A40F40070FFF7FCFE01222B6804FA02F0C3F81C2809
:2032000000222B46114640F6FC7C1D688F42CCBF45F8212045F821C001F10101C8BF1218F4
:203220001E29F2D119688A6719680244CA671B68094A3046C3F884202146FFF793FF002060
:20324000F8BD10F01F0318BF012303EB5013B4E70248F5E7F82E003020F80F002221F000DA
:2032600038B504460D4618484FF0FF3100F082FF10B11648FFF7E2FE41F63462144B1B68E0
:20328000D05810F001001CD100F079FF10B11148FFF7D4FE20462A460021FFF77DFF04461B
:2032A00068B1012000F06BFF10B10B48FFF7C6FE054800F061FF10B10848FFF7BFFE2046E5
:2032C00038BD074CF4E700BF342F0030777C001AF82E00308E7C001AAB7C001AC87C001A53
:2032E0003A21F0002DE9F04F99B09DF988E0BC4D83464FEA8E4040EA8E170090286847F0E8
:203300008E479DF98CC047F4003700F1B00634680394039CE407FAD5C0F88070286800F128
:20332000B00634680494049CE407FAD5C0F880704FEA8C144FEA8C4040EA0406D5F8008042
:2033400046F08E4646F4003608F1B00ADAF80090CDF81490DDF8149019F0010FF6D0C8F85D
:2033600080602D6805F1B009D9F80080CDF81880DDF8188018F0010FF6D0C5F880609D01F5
:2033800045EA83430195964D43F08E43D5F8008043F4003308F1B00ADAF80090CDF81C907E
:2033A000DDF81C9019F0010FF6D0C8F880302D6805F1B009D9F80080CDF82080DDF82080CE
:2033C00018F0010FF6D0C5F88030854D44EA8242D5F8008042F09E4242F4003208F1B00965
:2033E000D9F800300993099B13F00103F8D09029C8F8802066D8473101F01F0000281BBFDC
:203400000123012200228340286802EB511208BF013200F1B40421680A910A99C907FAD597
:2034200000EB8E0EDEF80010D4F800E0CDF82CE0DDF82CE01EF0010FF6D001391144C0F896
:20344000D4102A68C2F8D830DDE9003213432A6843EA0C3C4CF0274302F1B00001680C9190
:203460000C99C907FAD5C2F880305D4B1A6802F1B000016814911499CD07FAD5C2F88070C9
:203480001A6802F1B000016815911599CC07FAD5C2F880701A6802F1B0000168169116991A
:2034A000C907FAD5C2F880601B6803F1B0010A681792179AD207FAD50020C3F8806019B0B3
:2034C000BDE8F08F2B6803F1B408D8F800200D920D9AD207F9D503EB8E0EDEF80020D8F858
:2034E00000E0CDF838E0DDF838E01EF0010FF6D00632C3F8D4204FF400032A680BF1010B77
:20350000C2F8D830A1F190031A46002BB8BFA1F1710251115A4202F01F0240EA0B6003F024
:203520001F03D5F8008058BF534244EA000242F0205E4EF4043E08F1B00ADAF80090CDF832
:203540003C90DDF83C9019F0010FF6D0C8F880E04FF0000842F0C04949F4F839D5F800E062
:2035600088450EF1B00A2DDB6BB1013B44EA0334204340F0C040DAF800301193119BDB0739
:20358000F9D5CEF88000164942F00052086842F4043200F1B00423681293129BDD07FAD523
:2035A000C0F88020DDE9003213430A6843EA0C3C4CF0274302F1B000016813911399C907AC
:2035C000FAD550E7DAF800B0CDF840B0DDF840B01BF0010FF6D0CEF8809008F10108BDE78C
:2035E000F82E00302DE9F041454C88B0236803F1B40635680195019DEF07FAD5002624321A
:2036000053F82220B44612F01F0318BF012303EB52135F1C800027F0010722688E4202F14A
:20362000B40532DB296804910499CE07FAD5D16F286805900598C007FAD5C2F8D410002205
:2036400010469A42216849D1184600255A1C22F001028242216845D801F1B400056806956F
:20366000069DEF07FAD58D6F06680796079EF607FAD5C1F8D45000210846994236D100211B
:203680009A4238D808B0BDE8F081D5F800E0CDF808E0DDF808E01EF0010FF6D050F802E04B
:2036A000D5F80080CDF80C80DDF80C8018F0010FF6D0C2F8D4E000229A42256806D11A46FD
:2036C0009742256806D801360430A6E7C5F8D8C00132F1E7C5F8D8C00132F1E7C1F8D8005D
:2036E0000132AEE7C1F8D8500130B2E725680131C5F8D800C1E720680133C0F8D810BFE759
:20370000F82E00307FB5104D2B6803F1B40426680196019EF607FAD553F82220266803963F
:20372000039EF607FAD5C3F8E42000EB8101884201D104B070BD2B68D3F8DC300293029BD7
:2037400040F8043BF3E700BFF82E0030F0B52C4C85B0256805F1B4073E680096009EF6079C
:20376000FAD555F82060386801900198C007FAD5C5F8D46002EB8300904225682DD100226D
:20378000581C20F00100984225682BD805F1B4073B680293029BDB07FAD5243155F8213010
:2037A00013F01F0218BF012202EB5313984212D23A680392039AD207FAD50022114606449B
:2037C000C5F8D4601B1A934210D800215A1C22F001029A420FD805B0F0BD52F8047BC5F8AF
:2037E000D870C9E7C5F8D8200133CCE720680132C0F8D810E7E720680133C0F8D810E8E7E1
:20380000F82E00300022024B1B68C3F81C287047F82E003008B540B11E2801464FF00702D1
:2038200028BF1E210020FFF7DDFEFFF7EBFF012000F0A5FC10B10648FFF700FC054800F0A1
:203840009BFC20B1BDE808400348FFF7F7BB08BDAB7C001A342F0030C87C001A06232DE9EA
:20386000F04385B00393194B064693F9027093F9048012F01F0318BF01238946104603A99C
:20388000144603EB5215FFF7EBFC10B11048FFF7D5FB2B464A4607210020FFF757FF002206
:2038A0002146CDE9007801231046FFF71BFD044620B9012203213046FFF724FF0398FFF761
:2038C000A9FF204605B0BDE8F08300BFDF7C001A777C001A014628B1D0F8082200F58360E2
:2038E000FFF7BCBF004870470304F0002DE9F04F0646D0F80802072510F01F0418BF0124A3
:2039000004EB501485B0802C8B46029553D82B4AD6F8143402A992F9028092F9039092F9F4
:2039200004700193FFF79CFC824600283FD1234632462946FFF70AFF5FFA88F8052306F5A6
:20394000836229460120FFF701FF23465A4629464046FFF7FBFE019B019A13F01F0318BFDC
:2039600001235FFA89F903EB5213484606F503722946FFF7EBFEFFB2114ABB0143EA8843E9
:20398000126843EA093343F0184302F1B000016803910399C907FAD5C2F880300BF50270FF
:2039A0003A462146FFF7AEFE0298FFF733FF504605B0BDE8F08FDFF80CA0F8E7DF7C001A76
:2039C000F82E00300004F00018B121B1816000207047024870470248704700BF270CF00066
:2039E000140CF0002DE9F84FDDF828800D4692469B460446002851D002682E4B9A424FD15F
:203A000000294FD0BAF1000F4ED0B8F1000F4DD0BBF5027F4CD8D0F80C324FF4027213F09C
:203A2000070618BF012606EBD306F71C0021284627F00309FFF73AFB5B465246494628468B
:203A400000F03EFD30BBC7F38D030434224619462846FFF736FB022805D0174C3146404613
:203A6000FFF726FB0EE029462046FFF73FFF98B9334605F502724946404600F065FD04464F
:203A80000028EAD14FF4F1612846FFF711FB2046BDE8F88F094CE1E7094CDFE7094CF6E742
:203AA000094CF4E7094CF2E7094CF0E7094CEEE7094CECE7DF9B57131404F0001304F00037
:203AC0004504F0000304F0001B04F0002704F0001204F0001D04F0002804F000034620B13F
:203AE000002201448B4209D17047064B1B68002BFAD0054B054A0649FDF74CBA03F8012B29
:203B0000F0E700BF0C040030FF7C001AF97A001A187D001A2DE9F043D0E9173690469A1B24
:203B2000B2FBF3F503FB1525454528BF4546A5B004460F4655B164302A463044FFF7B2FAA8
:203B4000236E2F442B442366A8EB0508D4E917329A4233D10026802A28BF802204F1640130
:203B600004A8FFF79FFACDE90066334602AAE16D04A800F007FB054660B1304B1B682BB1A7
:203B800030462F4B2F4A3049FDF704FA284625B0BDE8F083E26D02A9204600F05FFB054601
:203BA00058B1264B1B68002BF0D000903046244B244A2649FDF7EEF9E8E72066E66DB8FB95
:203BC000F6F35E4337D04FF0000902AACDE900994B463146384600F0D5FA054640B1174B2E
:203BE0001B68002BD2D0164B164A17494846CBE7324602A9204600F031FB054648B10F4BD1
:203C00001B68002BC2D000900D4B0E4A0F494846D0E73744A8EB0605002DB7D0206E2A46BC
:203C20001930394604EB8000FFF73CFA236E1D4425660025AAE74546EEE700BF0C0400308F
:203C40002E7D001AF97A001A957D001AB27D001A38B50D46044648B90B4B1B6823B10B4B0F
:203C60000B4A0C49FDF796F901200BE0F021FFF71FFA40232560E365204600F0CDFA00306E
:203C800018BF012038BD00BF0C040030417D001AF97A001A017E001A2DE9F041056EA4B02C
:203CA00004464DB1802D2A4600F1640128BF802204A8FFF7F7F9256E00270126CDE9007720
:203CC00066603B4602AA294604A800F05BFA804668B1184B1B681BB9012024B0BDE8F081ED
:203CE000154B164A16493846FDF754F9F4E72A4602A9204600F0B2FA054658B10D4B1B68BF
:203D0000002BE9D0009040460B4B0C4A0D49FDF741F9E1E7204600F0A7FB48B1054B1B68ED
:203D2000002BD9D00090044B044A07492846EEE72066D2E70C0400305D7D001AF97A001AEF
:203D4000957D001AB27D001ADA7D001A73B50D46064650B91D4B1B680BB9012007E01C4B8F
:203D60001C4A1D49FDF716F9F7E712B9002002B070BDE9B9154B1B68002BEED0144B154AA0
:203D800016492846EEE74FF6FF723046FFF7C2FEA4F57F44FF3C68B10C4B1B68002BDCD03E
:203DA00000900B4B0B4A0E490020FDF7F3F8D4E714461544B4F5803FA5EB0401E3D22246EA
:203DC0003046FFF7A7FE0028D0D0E5E70C040030797D001AF97A001A017E001A187D001A19
:203DE0002A7E001A2DE9F0430E469BB08046002800F0FF80002900F0FA800368002B00F0A3
:203E0000F8804368002B00F0F480FFF7C7F8002840F0EB8000F09CF90146002840F0EB80E9
:203E2000764C142203A802F0EAFA0FCC254608AF0FC755F8043B18343B600DAF0FCD0FC755
:203E40002B6812AD3B600FCC0FC56D4F236803A92B603B6808A8D3F8E02F12AD0392D3F8FC
:203E6000E42F0492D3F8E82F0592D3F8EC2F0692D3F8D03F14220793FFF712F9E8B9102224
:203E800000210DA802F0BBFA5E4B0FCB85E80F003B680DA9D3F8F02F28460D92D3F8F42F68
:203EA0000E92D3F8F82F0F92D3F8FC3F10221093FFF7F6F8A8B107240EE0142203A90DA807
:203EC000FFF7EEF80028DAD0142203A92846FFF7E7F80028D3D00624FFF774F800F045F98A
:203EE0007DE041F634623968535823F08003535039685458A34276D143F48073535039682C
:203F00008A5893426FD1C1F8F0043B68C3F80C0A284600F09FF858BB3B4C4FF0FF31206803
:203F200000F028F910B13948FFF788F841F634623B68D05810F001001CD100F020F910B168
:203F40003348FFF77BF8324629460DA800F0A8FC0646012000F013F910B12E48FFF76EF851
:203F6000206800F009F910B12B48FFF767F81EB10524B1E70526F3E7D8F8000000F0C5FE26
:203F8000D8F8040001F006F800963346D8F804202249D8F8000000F0D9FE0028E8D120490F
:203FA0004046FFF711FD04460028E1D10DA80D96D8F8089000F0B0F80D9B072B0FD12022FF
:203FC0002946D8F80000C8470028D1D141F618723B6855F8041B0136082ED150F8D120463C
:203FE0001BB0BDE8F083082476E7032476E70224F5E70124F3E70424F1E700BF587E001A21
:20400000F82E0030947E001A382F0030777C001A8E7C001AAB7C001AC87C001A0750001A46
:20402000914E001A38B5044688B1FEF7CBFF00280CBF0025032500F098F800232068A360EA
:2040400000F070FE606800F0C9FF284638BD0125FBE70000102337B501A90446019300F080
:2040600063F8054610BB019B102B22D101232361D4E90023002B14BF02230023002A18BF36
:2040800043F00103A268002A14BF042200221343E268002A14BF082200221343C4E9053079
:2040A00023B9054D10212046FFF702F8284603B030BD024DF6E700BF0E0CF000370CF00015
:2040C000074B1A6802F5F85310331968C907FCD541F61473D35803F0070303600020704745
:2040E000F82E003010B589B1094B1C6841F62C73E258012302F00F029340834206D900F5F0
:20410000006054F8203000200B6010BD0148FCE7F82E00300029F00008B1FFF7D1BF014828
:20412000704700BF0029F00080B179B10B68102B0CD141F288324FF47A734FF4FA71C0E996
:2041400000230023C0E90213184670470120704710B5FCF71DFF0021084600F008F80446F1
:2041600008B900F00BF8204610BD00F002B80020704770470020704700207047704700209B
:20418000704700002DE9F7434FF0000817461E4601220DF1070381460B9D8DF8078000F07A
:2041A000E3FB044678B1174B1B682BB94FF47504204603B0BDE8F0834046134B134A14495A
:2041C000FCF7E8FEF2E79DF80730C7F800903B71002DEDD086B102460DF107030A993046DC
:2041E00000F0C2FB40B1074B1B68002BDED0064B064A08492046E3E79DF807302E602B715B
:20420000D6E700BF0C040030F37E001AF97A001AA47E001ACB7E001A10B590B10468012C8C
:204220000CD0022C07D07CB9142208490830FEF739FF002010BD20220549F7E72022054991
:20424000F4E74FF47300F5E70348F3E7087F001A1C7F001A3C7F001A0100F3002DE9F04760
:20426000054690460F46002900F0E680002800F0E5800368002B00F0C380C0F2E280022BC2
:2042800000F3DF804FF002094FF0FF316E48FFF771FF10B16D48FEF7D1FE0020FFF76FFF39
:2042A000064610B16A48FEF7C9FE6A4C236803F51163D3F800A0BAF1000FFAD14FF0FF3078
:2042C000FEF78CFE2368D3F8040A20F4006040F0F000FEF78BFE012207212368C3F8182818
:2042E0002368C3F820282368C3F800192368C3F8C4272368C3F8A4A62368AA6CC3F8CC27C1
:204300002368EA6CC3F8D0272368C3F8C0972B68002B0ED021DB022B1FDC23686A6AC3F893
:204320005C2623682A6AC3F858262368EA69C3F854262368AA69C3F8502623686A69C3F8A8
:204340004C2623682A69C3F848262368EA68C3F844262368AA68C3F840262368B8F1000FA1
:2043600051D10422C3F8C8272A682368002A0BD019DB022A17DCD3F85C266A62D3F85826B4
:204380002A62D3F85426EA61D3F85026AA61D3F84C266A61D3F848262A61D3F84426EA606A
:2043A000D3F84026AA60D3F8CC27AA64D3F8D027EA640122C3F8C42700232268C2F88436FC
:2043C0002268C2F8C8372268C2F818382268C2F8203826B1102105F10800FEF769FE0120E7
:2043E000FFF7CDFE10B11C48FEF728FE1648FFF7C3FE10B11948FEF721FE3046BDE8F087DF
:204400004FF0010940E76A684FF40060012A08BFC3F884263B7921685B0003F002033A682E
:20442000C1F80C3B2368C3F8282C2368C3F82C8CFEF7E4FD064697E7094EDEE74FF473066C
:20444000DBE7084ED9E700BF442F0030777C001A8E7C001AF82E0030AB7C001AC87C001AFC
:204460000300F3000100F30048B1031D443053F8042F12BA83421A60F9D1002070474FF458
:2044800073007047CB0770B54FEA510448BF50F8243000EB810244BF1BBA40F824300023D5
:2044A000A34201D0012900D870BD50F8235052F8046D2DBA36BA40F8236015600133EFE790
:2044C0002DE9F047894606461C46114682B378B3013B07332ED819F003052BD14C4529D840
:2044E00014F0030318BF012303EB94084FEA8807B94504F003021FD3884200D162B1A7EB3C
:20450000040A224606EB0A00FEF7CEFDBC4203D251463046FEF7CCFDA9EB0701F019FEF732
:20452000C7FD41463046FFF7ADFF2846BDE8F087024DFAE7024DF8E7024DF6E7040DF00003
:20454000050DF000090DF000F8B506461D46144632B328B333B38B4224D8824201D1AB07E6
:2045600020D1EF1CBF0839462046FFF78BFFB44214D002D263199E4216D3B44202D97319C3
:204580009C4211D3694201F0030121442A463046FEF788FD39462046FFF774FF002000E0A6
:2045A0000248F8BD0248FCE70248FAE7040DF000050DF000060DF000002337B5044601A89C
:2045C0000D46019300F06EF9F8B9019B104A13F0010F08BF10465B0703D50E4B002D18BF2F
:2045E00018464FF0FF310C4B1A68C2F8081160B94FF48A72196851580432B2F5967F44F892
:20460000041BF7D11B68D3F8043103B030BD00BF310CF100020CF100F82E00304FF4403398
:204620005843054B80091A68C2F8D80101221B68C3F82C21704700BFF82E00302DE9F84326
:2046400088461E460746002867D0002965D0002B63D01AB101233360002303603368002BF2
:204660005DD03146404600F05BF9054600284DD14146306800F03CF90546002846D13368D2
:20468000082B46D0042B46D09A1E534253410122244C2168C1F8C4212168C1F840212168C5
:2046A000C1F8C4212168D8F81800C1F830012168D1F830C16045F2D14FF00009C1F82C9198
:2046C0004FF0FF312268C2F808116FF013012268C2F800112268C2F80C312368D3F8040A61
:2046E00040F48060FEF782FC2368C3F83891D8F81800FFF793FF3A68336822F07F4242EA78
:2047000003623A60336842EA03223A602846BDE8F8830323BBE70223B9E7034DF6E7034D7C
:20472000F4E700BFF82E0030350CF100310CF1002DE9F04F504E8FB004460D469246002161
:20474000302202A89DF86C9001F059FE4FF0FF313068FFF70FFD10B14848FEF76FFC41F693
:204760003462474F3B68D05810F0010079D1FFF706FD10B14348FEF761FC189B1A9A1A607F
:204780000023199A1360BAF1000F1BD101AB012229462046FFF752FF8046F8B100F0CEF81A
:2047A0000120FFF7ECFC10B13748FEF747FC3068FFF7E2FC10B13548FEF740FC40460FB062
:2047C000BDE8F08F3B68A969D3F83821D3F83031994243D1002A41D1E37801930427DFF894
:2047E000B0A0DFF8B0B0494602A8FFF7E5FE8046002839D1A869FFF711FF494608A8FFF7DC
:20480000DBFE804680BB1A9B302203F1080002A9FEF748FC3023199A4FF000081360BDE773
:204820005B000193002201AB29462046FFF706FF5845804603D16A69002AAFD019E0002817
:20484000ACD12268013F4FEA122303F47F0343EA020323F07F432360C5D1D4E7DFF83880C0
:204860009CE7DFF83880A2E7D04597D0019B082BD6D1DFF8288091E7382F0030777C001A10
:20488000F82E00308E7C001AAB7C001AC87C001A020CF100310CF100300CF100320CF10076
:2048A0000020704710B504464FF48060FEF7ACFB0E4B38B100221968C1F8C8211B68C3F88E
:2048C0002C2110BD1A68C2F8C8011A68C2F82C011A68D2F8042122601968C1F808214FF4B7
:2048E00080621B68C3F8082AEBE700BFF82E0030013807280FD8DFE800F004080E0A0E0E39
:204900000E0C0B688B61002070474B68FAE78B68F8E7CB68F6E70148704700BF310CF100E4
:204920000B684269134205D15B00082B0B60F7D90148704700207047310CF1000022094BEA
:204940001968C1F82C211968C1F8C4214FF480611A68C2F8081A4FF0FF321B68C3F8082158
:20496000704700BFF82E0030002210B51A701C4601F09EFA08B101232370002010BD0000B2
:204980002DE9F0470C210120FDF7E8FFDFF8A0804FF40871C8F800000120FDF7DFFF214DCD
:2049A000882128600120FDF7D9FF1F4C4FF4227120600120FDF7D2FF1C4F03463860D8F816
:2049C0000000AA46A1463E4620B1296811B1226802B18BB9FDF7C8FFDAF80000FDF7C4FF93
:2049E000D9F80000FDF7C0FF3068FDF7BDFF4FF0FF363046BDE8F087C0E90023FFF7F2F938
:204A000006460028F5D0D8F80000FDF7ADFF2868FDF7AAFF2068FDF7A7FF3868FDF7A4FF67
:204A2000E7E700BF082F0030042F0030FC2E0030002F003038B50B4D2868FFF7F3FA044664
:204A400070B92868FDF790FF074B1868FDF78CFF064B1868FDF788FF054B1868FDF784FF36
:204A6000204638BD002F0030082F0030042F0030FC2E00302DE9F04FB2F5C07FADF5197DE5
:204A800007468846154600F29E804FF4D072002130A801F0B4FC18A800F09EFB6BBA0024DF
:204AA000ADF8D230302336AE2A46414630468DF8D730ADF8D04001F07BFC802304AA7355E9
:204AC0009046234602F8013B0133202BFAD14FF48072414618A800F0A5FB0446002853D175
:204AE00006461935AA4610220021684601F087FC0DF1CF026B469B46A2F11009197819F808
:204B0000010F4140914503F8011BF7D1BAF1100F5B465A464FF0010118A894BFAAEB0A0A47
:204B2000AAF1100A00F082FB044668BB09F11002BAF1000FDED10CAB98191022594601F047
:204B400037FC9DF8C33010360133302E8DF8C330C8D14FF480720CA918A800F063FB04466F
:204B600090B93D4607F1300614AB1A46012118A800F05CFB044638B92846102214A9103516
:204B800001F016FCAE42EFD118A800F035FB4FF4D07130A8FDF7F8FE30210DEB0100FDF7FE
:204BA000F3FE20214046FDF7EFFE10216846FDF7EBFE1CB130213846FDF7E6FE20460DF5C4
:204BC000197DBDE8F08F6FF03704F7E72DE9F0478CB004460D4630220021684601F00FFC60
:204BE000002604F10F0904F120086F460DEB0603494600E0014608460A780132D2B200F87A
:204C000001290AB9A142F5D122460121404600F00DFB8246C8B91036302EE6D16B1E2F3565
:204C20003A7813F8011F4A40AB4207F8012BF7D14FF480726946404600F0F4FA824620B944
:204C4000102208A9204601F0B3FB68463021FDF79BFE50460CB0BDE8F0872DE9F0411746CE
:204C60008269E0B0B2F5C07F044688461E4649D8C2F5C073B34245D3C6F5C0739B1ABB429F
:204C800040D34FF4C0720021684601F0B8FBD4F88030A2696946D4F88400984728B16FF07C
:204CA0003305284660B0BDE8F081A56956B1D4F8803032460DEB0501D4F8840098470028CA
:204CC000EDD13544B8F1000F07D037B10DEB05003A46414601F06CFB3D442A46694668467C
:204CE000FFF7C8FE054638B969462046FFF76EFF054608B9012323614FF4C0716846FDF77A
:204D000043FECEE76FF03705CBE710B588220021044601F074FB4FF0FF33236142F210736A
:204D2000E36110BD10B5044660B1203000F064FA88212046FDF728FE42F21073E3614FF041
:204D4000FF33236110BD0023FFF787BF2DE9F04105468846144688B020220021684605F178
:204D600020061F4601F04BFB304600F035FAAB69C5E920840BB92023AB612C69002C05DAC3
:204D8000AC692F2C8EBF0024013464084FF480726946304600F046FA28B923460E9A394696
:204DA0002846FFF75AFF08B0BDE8F0812DE9F043B2F5806F91B005460F4616469846189CBA
:204DC00060D8B4F5807F60D83022002104A801F016FB2A69EB699A4201DC6B69ABB1224662
:204DE00041462846FFF7AFFF044630BB05F10F0805F120092EBB04A92846FFF7E7FE044690
:204E000098B92B6901332B610FE0002CEED02246414604A8FFF72EFE044630B904A9284609
:204E2000FFF7D4FE04460028E0D0302104A8FDF7ABFD10216846FDF7A7FD204611B0BDE8AC
:204E4000F0834246114613780133DBB201F801390BB9AA4214D16B462A460121484600F02B
:204E6000E5F904460028E0D1102E344628BF102438462246694601F09BFA2744361BB9E7E7
:204E80000A46DFE76FF03504D7E76FF03704D4E7002307B50093FFF789FF03B05DF804FB5A
:204EA0002DE9F041202B8AB080460D4617461E4609D9002302AA3146384600F01FF9044654
:204EC00000BB202602AF8DF80450454655F8041B8DF8056081B101230222C8F8003001A952
:204EE0002846FEF716F8044660B9324639462846FEF70FF8044605E02846FDF7F9FF0446AA
:204F00000028E8D002A82021FDF73EFD20460AB0BDE8F0812DE9F043002680460446374665
:204F20006FF03B05B146A3B0D8F8F4309F420BDB002E08BF6FF03C0502A88021FDF724FDD8
:204F4000284623B0BDE8F083D4F80831D4F8F850012BCDF8049001AB4FF0800202A9D4F876
:204F6000FC0008BF0126A84705460028E4D1019B63B102AAF9B24046FFF792FF0028E0D143
:204F8000D4F80031019A1344C4F8003101371434CAE7000038B5002504464FF4C872C0F873
:204FA000F4502946F83001F02AFA204640F8045BFDF77AFFD4F8F420132A0CDC142303FB5D
:204FC000024305492020C3E93E1501210A44C3E94101C4F8F42038BD0D53001A036810B532
:204FE000013304460ED00430FDF76CFF00234FF4C871C4F8F43004F1F800FDF7C5FC4FF062
:20500000FF33236010BD2DE9F041202A88B080460F4616466FD84FF48175013D65D0D8F80B
:20502000F430002B64D04046FFF774FF0446002840D1034642460120D8F8F4E0A64541DCDD
:205040000028EAD01F2BE8D920220021684608F1040501F0D4F969462846FDF763FF0446D5
:2050600040BB2846FDF72EFF2846FDF71DFF21462846FDF73DFF0446E0B9202269462846E1
:20508000FDF747FF0446A8B903466A462021684600F034F8044668B914212546D8F8F42038
:2050A000034608F580709A4219DC32466946384601F07EF920216846FDF766FC204608B079
:2050C000BDE8F081D2E940C18C4538BF0020D2F808110134012908BF63441432AEE701FB8F
:2050E00003FC013340F80C50DDE76FF03B04E1E76FF03F04DEE76FF03B04DFE7F0B51C46ED
:20510000BDB0064668460F461546FDF7CDFE21466846FDF7EDFE044658B93A4631466846C5
:20512000FDF7F7FE044620B929466846FDF7FAFE04466846FDF7C6FE20463DB0F0BD0000AA
:2051400037B50D46044650B91D4B1B6823B11D4B1D4A1E49FBF71EFF6FF0210020E061B91F
:20516000174B1B6813B96FF01F0019E0154B164A17492846FBF70EFFF5E783630123C02AAA
:20518000C36305D0B2F5807F0CD0802A0CD100232363D208294604F11000FDF783FF00207E
:2051A00003B030BD0223F3E7054B1B68002BDAD00092044B044A07490020FBF7EBFED2E775
:2051C0000C0400306D7F001AF97A001A8E7F001AA97F001AC47F001A10B5044610B9054811
:2051E000FDF72CFF0023C4E910330123C4E9123310BD00BF9980001A38B9064B1B6843B1EF
:20520000054B064A0649FBF7C5BE60220021FDF74DBF70470C0400305C7F001AF97A001A0E
:205220008E7F001A0023FFF78BBF00002DE9F041164686B0044608B102B173B92B4B1B6830
:2052400023B96FF0210006B0BDE8F081284B294A29490020FBF79EFEF3E701290BD9234BCA
:205260001B68002BEDD000200091214B214A2349FBF790FEE5E7826B0DD172B11B4B1B68AC
:20528000002BDED0CDE90012194B1A4A1C490020FBF780FED5E7012AF0D110254FF000088C
:2052A00004AFC4F8348030460197009502AA2946FEF768FF064638B10C4B1B68002BC0D0E7
:2052C0000B4B0C4A0F49C4E72B463A4602A9204600F044FA0028B6D0044B1B68002BB0D0C4
:2052E0000090034B034A08493046C1E70C040030787F001AF97A001AEA7F001A0980001A10
:205300002A80001A957D001A6D80001A2DE9F04190B005921D46884679B93F4B1B682BB924
:205320004FF0FF34204610B0BDE8F08140463B4B3B4A3C49FBF72EFEF2E743B9364B1B68B2
:20534000002BEDD0354B364A37492846F2E710463AB9314B1B68002BE2D0304B304A334908
:20536000E8E74FF408710120FDF7F8FA074638B9294B1B68002BD3D0284B294A2C49D9E77D
:20538000042107A8FDF794FE09A81C21FDF790FE09A8FEF75FFE60B11F4B1B6813B94FF037
:2053A000FF3424E01D4B1E4A22490020FBF7F2FDF5E708ABCDE9027000930246019505ABA2
:2053C00009A907A8FFF7B4F9044638B1124B1B68002BE4D0114B124A1749E6E72A68059BC0
:2053E0009A4211D8089940460831FDF75BFE4FF408713846FEF772FB3846FDF7B5FA042159
:2054000007A8FEF76BFB8DE7034B1B68002BC6D0024B034A0949C9E70C040030AC80001A5A
:20542000F97A001AC280001AE080001AFC80001A1781001A4D81001A8481001AB381001A6C
:2054400013B50446002800F09480C36B062B00F29380DFE803F02D0447916D918500474BD2
:2054600001691A68C2F800141A684169C2F804141A688169C2F808141A68C169C2F80C14AC
:20548000026B511E012911D81968006A022AC1F810041968606AC1F8140407D11A68A16AB8
:2054A000C2F818141B68E26AC3F81C24002008E041F61473314A1168CB58C3F3002313B1C2
:2054C0002F4802B010BDC1F8383A13680122C3F8782441F63462294B1B68D358DB07E5D52B
:2054E0002848EEE7002301A921200193FEF7FAFD10B9019B180401D52348E2E741F6346182
:205500001E4A13685958090701D52048D9E741F61471595811F4007FD2D1E16BC3F8381AFC
:2055200013680122C3F87824E36B012BD1D1BDE7002301A910200193FEF7D4FD0028DBD18B
:20554000019B1804D8D441F634610C4A136859588907DAD441F61471595811F4006FDBE7B8
:205560000123064A1168C1F8383A1268C2F87834AFE74FF47100A4E70548A2E7F82E003032
:205580000800F1000A00F1000900F1000700F1000100F10010B50346002834D0416B07291D
:2055A00034D801228A4012F08A0019D112F0440F04D1174B002918BF184610BD154A1C68E2
:2055C0001168C1F860445C681168C1F864449C681168C1F868441268DB68C2F86C34ECE78B
:2055E0000C4A18681168C1F8400458681168C1F8440498681168C1F848041268DB680020CA
:20560000C2F84C34D9E74FF47100D6E70048D4E70100F100F82E0030034600282ED0416BB9
:2056200007292ED801228A4012F08A0016D112F0440F04D1144B002918BF18467047134AD9
:205640001268D2F860141960D2F864145960D2F868149960D2F86C24DA6070470B4A00201F
:205660001268D2F840141960D2F844145960D2F848149960D2F84C24DA6070474FF4710040
:2056800070470148704700BF0100F100F82E003070B50646002848D0426B072A48D8012379
:2056A000934013F0CF0F43D0836B012B42D8836C012B41D8C36C012B40D8224D2B6803F54E
:2056C00011631C68002CFCD14FF0FF30FDF786FC2B68D3F8040A20F4006040F0F000FDF701
:2056E00085FC01222B68716BC3F800292B68306BC3F8BC4421F00403032B14BFB26B22462C
:2057000002281DD88B0003F01C0302F0010243EA003313432A680729C2F8C03403D10122BB
:205720002B68C3F87C24204670BD4FF47104FAE7054CF8E7054CF6E7054CF4E7054CF2E79B
:20574000054CF0E7F82E00300100F1000200F1000300F1000400F1000600F1002DE9F843B5
:20576000064690461F468946002900F09580002A00F09280002800F09180836C002B40F006
:205780008580B7F5805F80F08C804FF0FF314648FEF7F0FC10B14548FDF750FC0020FEF77C
:2057A000EEFC10B14248FDF749FC0123414D30462A68C2F810382A68C2F82038FFF768FFBE
:2057C000044600284AD13046FFF73AFE0446002844D13046FFF7DEFE044600283ED199F8B7
:2057E000043098F804205B0002F0010203F0020313432A68D9F80010D8F80000C2F80C3BDF
:20580000736B23F00403032B0ED0F26C2B68012A0BBFC3F8280DC3F8300D2B682B680CBFC5
:20582000C3F82C7DC3F8347DB26C2B68012A0BBFC3F8281CC3F8301C2B682B680CBFC3F840
:205840002C7CC3F8347C4FF40060FDF7D7FB044620B93046FFF7E0FE0123736400232A68AF
:205860000120C2F810382A68C2F82038FEF787FC10B11148FDF7E2FB0B48FEF77DFC10B17C
:205880000E48FDF7DBFB2046BDE8F883012B7FF47CAFB7F5803F76E7094CF4E74FF47104E8
:2058A000F1E7084CEFE700BF442F0030777C001A8E7C001AF82E0030AB7C001AC87C001A5E
:2058C0000B00F1000500F100044B054A4FF00000D21A043AA4BF9850FBE7704700040030B7
:2058E0006057003008B5084B83F30A88074B00209B68984728B9FFF743F8003018BF01201B
:2059000008BD0120FCE700BF602F0030D001401A08B50446FFF78EF800B1FEE7094BDB6865
:20592000984700B1FEE7084B1C6080F30A88226882F30888BFF34F8FBFF36F8F1B6858680C
:2059400000F014F8D001401A0C2F0030034A044B9A60044B044A1A60704700BF0000001A78
:2059600000ED00E028040030005A62020746FFF7ABFF00200146024603460446054606467A
:205980008046814682468346844686463847000037B5084C6369984748B9E56AA847C307E0
:2059A000FCD4236A019303B0BDE830401847002003B030BD9082001A08461146FFF7E8BFA1
:2059C00010B5114C0020A368984728B15B210F4B0F4A104800F066FC23690220984718B193
:2059E0000A4B0B4A5E21F4E7A46A4FF4E1310120A04718B1054B064A6221EAE72346BDE86D
:205A000010400121152018479082001A1582001AFD81001A2A82001A10B5074C0020236981
:205A20009847E368984728B1044B054A6F21054800F038FC10BD00BF9082001A1582001A7C
:205A40000882001A2A82001A08B5064B00F5FC2004225B6980009847002843F65C2008BFD0
:205A6000002008BDD001401A10B5174C86B018220021684600F0C3FCA3680020984700BB3B
:205A80006369182269464FF4FC109847C8B90F4B059A9A4202D1002006B010BD0593CDE909
:205AA0000000CDE902000490E3694FF4FC10984738B9A369182269464FF4FC1098470028E4
:205AC000E9D043F65C20E7E7D001401A4200DEC0042902D11146FFF7B7BF43F65C20704750
:205AE00070B5184D86B0182204460E466846002100F085FC6B69182269464FF4FC109847E3
:205B0000C8B906AB03EB840050F8183CB34202D1002006B070BD11D240F8186CEB694FF444
:205B2000FC10984738B9AB69182269464FF4FC1098470028ECD043F65C20EAE74AF2C530C3
:205B4000E7E700BFD001401A13681F2B11D901280FD820231360084B01F1200253F8303006
:205B6000013B13F8010F01F8010B9142F9D10020704743F65C2070476C82001A034B82B061
:205B8000186883B263F30F0002B070478C82001A012070476FF0030070470000014B58685D
:205BA000704700BF88040030014B9868704700BF88040030002382B00193019802B070474A
:205BC0006FF003007047002382B00193019802B07047000008B5034B186800F0CDF8002061
:205BE00008BD00BF88040030012805D902280CBF00206FF0040070476FF003007047000016
:205C000070B50E460546A0B199B100230A4CA360206800F00DF90028FAD02946206800F052
:205C20001DF9A368013501339E42A360F0D1002070BD6FF00400FBE78804003070B50E466E
:205C40000546C8B1C1B100230D4C6360206800F00DF90028FAD015F8011B206800F01CF9A9
:205C6000636801339E426360F0D1206800F0FEF80028FAD0002070BD6FF00400FBE700BF10
:205C800088040030C3B2012B10B5044602D06FF0030010BD0B4B186800F088F860B914F430
:205CA000E06FF4D114F4405F09D114F4404F0CBF00206FF00A00ECE76FF00700E9E76FF0FC
:205CC0000900E6E78804003010B5064B064C1968E060206800F00AF8206800F0E1F800201E
:205CE00010BD00BF2404003088040030F8B5054600293CD003685A680AB91220F8BD1C687C
:205D000043681201596088010023890E00F044F90023B0F1400641F1FF37164ABB4208BF06
:205D2000B242EAD3830943EA816300F03F006362A062BFF35F8FE36A2968E362487A0B7A15
:205D4000897AE26A20F0790003F06003034301F0080122F0EE020B4313430122E362E36A7A
:205D6000002043F01003E3626B681A70C6E71020C4E700BF80FF3F0003681B689A6912F023
:205D80000802FBD14FF440711963FF211A60596012211A625A629A62DA62596340F2FF7169
:205DA0009A6359649A6443681A7070472DE9F8434268036881461C6813780D46012BD4F8B8
:205DC00030802FD181B3236B516823F0010323632A0100238801890E00F0DEF80023B0F103
:205DE000400641F1FF37114ABB4208BFB24217D3830943EA816300F03F006362A062BFF3B3
:205E00005F8F0020E36AE362D9F804309D6018F0010F03D0236B43F001032363BDE8F8838A
:205E20001220F4E71320F9E71220F7E780FF3F0043681B78012B0FD103681B68186B10F0B9
:205E400001000AD0186B10F4007006D0986980F01000C0F3001070470020704703681B68DA
:205E60001A680A70586800F00F00704743681B78012B0FD103681B68186B10F001000AD01A
:205E8000186B10F4807006D0986980F02000C0F3401070470020704703681B681960704775
:205EA00003681A68136B43F00103136370470000C3438B426DD332F01F036AD1013902F055
:205EC0001403014410B481EA0004142B0ED8DFE803F0390D0D0D420D0D0D0D0D0D0D0D0D3D
:205EE0000D0D4B0D0D0D1000DC0200D4002010BC70471F2C40E8C0F305D941E8C0F11C4671
:205F00000B469C42F2D122F01402013A0A2AEDD801A151F822F000BF8D5F001A875F001A71
:205F2000815F001AED5E001AED5E001AED5E001AED5E001A7B5F001A8D5F001AE95E001A78
:205F4000815F001A1F2C40E800F3DCD941E800F11C460B46D5E71F2C40E840F3D3D941E828
:205F600040F11C460B46CCE71F2C40E880F3CAD941E880F11C460B46C3E75B03B6D5B6E784
:205F80009B02B4D4B2E75902B1D5AFE71A03AED4ACE70020704700BF53B94AB9002908BF05
:205FA00000281CBF4FF0FF314FF0FF3000F070B9ADF1080C6DE904CE00F006F8DDF804E067
:205FC000DDE9022304B070472DE9F04F099E04468946002B40F083808A42154645D9B2FA07
:205FE00082F24AB1C2F1200701FA02F39540944020FA07F747EA03094FEA154E230C1FFA86
:2060000085F8B9FBFEFC0EFB1C990CFB08F143EA094399420AD9EB182CBF01200020994256
:2060200002D9002800F01D810CF1FF3C591AA3B2B1FBFEF00EFB101100FB08F843EA01449E
:20604000A04505D92C1902D2A04500F20E810138A4EB080440EA0C4000271EB1D440002387
:20606000C6E900433946BDE8F08F002A51D0B2FA82F2002A40F0AF80491B4FEA154E1FFA7E
:2060800085F80127230CB1FBFEFC0EFB1C1108FB0CF043EA014398420AD9EB182CBF012113
:2060A0000021984202D9002900F0D7800CF1FF3C191AA3B2B1FBFEF00EFB101108FB00F81B
:2060C00043EA0144A04505D92C1902D2A04500F2C1800138A4EB080440EA0C40BDE78B429F
:2060E00008D9002E74D00027C6E9000138463946BDE8F08FB3FA83F767B98B42C0F0A4806D
:20610000824240F2A1803846002EABD0C6E90049A8E7FFDEC7F12005BB4002FA07FC01FA0B
:2061200007F4EA4020FA05F8E94000FA07FE1A4348EA04044FEA1248200C1FFA82F9B1FB65
:20614000F8FA08FB1A110AFB09FB40EA01418B450AD951182CBF012300238B4502D9002B86
:2061600000F088800AF1FF3AA1EB0B01A4B2B1FBF8F008FB101100FB09F944EA0141894512
:2061800004D9511801D289457BD8013840EA0A40A1EB0901A0FB0C89494544464B4602D3D4
:2061A00006D1C64504D20138B8EB0C0469EB0203002E5DD0BEEB040261EB030101FA05F593
:2061C00022FA07F3F94000271D43C6E9005149E73746304646E7C2F12000954001FA02F7FD
:2061E00021FA00F34FEA154E24FA00F11FFA85F894403943B3FBFEF00F0C0EFB103300FB02
:2062000008FC47EA03439C4507D9EB182CBF012700279C4500D98FB30138A3EB0C0389B2F8
:20622000B3FBFEF70EFB173307FB08FC41EA03418C4504D9691801D28C4525D8013FA1EB57
:206240000C0147EA00471DE7841A61EB03030120994659E702382C443CE7ACF1020C2B449E
:2062600026E7ACF1020C2B44E0E602382C44EFE63746F7E6AAF1020A114475E702382B4457
:20628000CBE70238114481E7023F2944D7E700BF704700BF08B5062000F09CFC012001F037
:2062A000C3F800001FB51C46094B05461B68D86852B1084B00910849CDE901322B46224691
:2062C00000F02AF8FFF7E6FF044B1A46F2E700BF98040030C882001AD582001AD078001A87
:2062E000024B0A460146186800F091B89804003008B5074B044613B1002100E000BF054B08
:206300001868836A03B19847204601F08DF800BF000000000483001A0EB403B503AB0146D2
:20632000054853F8042B0068019300F04FF902B05DF804EB03B070479804003070B50D4DB7
:2063400000260D4C641BA410A64209D10B4D00260B4CF9F70FFF641BA410A64205D170BDD8
:2063600055F8043B01369847EEE755F8043B01369847F2E7FC040030FC040030FC0400309B
:2063800000050030024B0146186800F04FB800BF9804003030B501390024A24201D1002019
:2063A00005E0035D01340D5DAB42F6D0581B30BD0A44431E914200D1704710B511F8014BC2
:2063C000914203F8014FF9D110BD884201EB020310B502D983421C4607D8421E994208D094
:2063E00011F8014B02F8014FF8E783189A1A9A4200D110BD14F8011D03F8011DF7E70244EF
:206400000346934200D1704703F8011BF9E738B502FB01F4214600F057F8054618B12246DE
:206420000021FFF7ECFF284638BD000038B50546002945D051F8043C0C1F002BB8BFE4182F
:2064400000F0F4FE1F4A1368104633B9636014602846BDE8384000F0EFBEA3420CD9216882
:206460006218934202BF1A685B685218636008BF22600460ECE713465A680AB1A242FAD98D
:2064800019685818A0420BD120680144581819608242DDD11068526801445A601960D7E7BD
:2064A00002D90C232B60D3E7206821188A4202BF116852680918626008BF21605C60C7E777
:2064C00038BD00BF242F0030F8B5CD1C064625F0030508350C2D38BF0C25002D01DBA942F4
:2064E00003D90C2333600020F8BD00F09FFE21490A6814469CB9204F3B6823B92146304646
:2065000000F030FB38602946304600F02BFB431C23D10C233046336000F08EFEE3E7236871
:206520005B1B17D40B2B03D923601C44256004E06368A2420CBF0B605360304600F07CFE24
:2065400004F10B00231D20F00700C21ACCD01B1AA350C9E722466468CCE7C41C24F00304B2
:20656000A042E3D0211A304600F0FCFA0130DDD1CFE700BF242F0030282F00309368013B5A
:20658000002B936010B407DA9469A34201DB0A2902D110BC00F060BB1368581C10600846F0
:2065A000197010BC7047F8B506460F461446D518AC4201D1002007E03A4614F8011B304655
:2065C000FFF7DCFF431CF3D1F8BD00002DE9F04F0D469DB014461E46074618B183690BB999
:2065E00000F012FD854B9D421BD17D686B6ED90705D4AB899A0502D4A86D00F0A2FDAB8909
:206600001B0701D52B69EBB92946384600F076FBC0B16B6ED8070ED54FF0FF301DB0BDE810
:20662000F08F774B9D4201D1BD68DFE7754B9D4208BFFD68DAE7AB899905EDD4A86D00F059
:2066400081FDE9E70023DFF8C0914FF0010A0396099320238DF8293030238DF82A30234666
:206660001E4613F8012B0AB1252AF9D1B6EB040B0BD05B46224629463846FFF794FF013070
:2066800000F0A380099B5B4409933378002B00F09C8000234FF0FF320136049307938DF8A6
:2066A00053301A93CDE9052334460522564814F8011B00F0ADFD049BC0B9DA0644BF20228E
:2066C0008DF85320180744BF2B228DF8532032782A2A13D03446079A00200A26214611F89F
:2066E000013B303B092B4BD970B914E0A0EB090026460AFA00F018430490D5E7039A111D14
:206700001268002A039101DB079204E0524243F002030792049323782E2B0CD163782A2BEB
:2067200033D1039B02341A1D1B68002B0392B8BF4FF0FF330593354E03222178304600F0E0
:2067400067FD38B14023801B013403FA00F0049B0343049314F8011B06222D488DF82810CE
:2067600000F056FD00283FD02A4B13BB039B073323F0070308330393099B434409936EE77A
:2067800006FB023201200C46A8E7002301340A2619460593204610F8012B303A092A03D930
:2067A000002BC8D00591C6E706FB012101230446F0E703AB2A4604A938460093164B00E04E
:2067C00000BFB0F1FF3F8046D6D16B6ED90705D4AB899A0502D4A86D00F0B4FCAB895B0629
:2067E0003FF51AAF099819E703AB2A4604A938460093094B00F08AF8E3E700BF5C83001AD7
:206800007C83001A3C83001A0883001A0E83001A1283001A00000000A765001A2DE9F04714
:2068200091461F468A6806460B690C46DDF820809342B8BF1346C9F8003091F8432012B15E
:206840000133C9F800302368990642BFD9F800300233C9F80030256815F0060507D104F157
:20686000190AE368D9F800209B1AAB422BDC94F843302268003318BF0123920630D404F1C8
:20688000430239463046C047013023D023681A3454F80E5C03F00603D9F800204FF00009CF
:2068A000042B54F8123C08BFAD1A54F80A2C14BF002525EAE5759342C4BF9B1AED184D45FA
:2068C0001AD1002008E00123524639463046C047013003D14FF0FF30BDE8F0870135C0E7A1
:2068E000E1185A1C30200233224481F8430094F8451082F84310C2E70123224639463046AA
:20690000C0470130E6D009F10109D8E72DE9F04306460C4601F14300097E85B098466E2979
